:1000000002000000010000000100000011000000DB
:10001000E000000000500100E0500100C0040000BA
:10002000A0550100C0040000605A0100C004000097
:10003000205F0100C0040000E0630100C004000074
:10004000A0680100C0040000606D0100C004000051
:1000500020720100C0040000E0760100C00400002E
:10006000A07B0100C004000060800100C00400000B
:1000700020850100C0040000E0890100C0040000E8
:10008000A08E0100C004000060930100C0040000C5
:1000900020980100C0040000E09C01004001000025
:1000A000209E01007802000098A001007802000064
:1000B00010A301007802000088A50100780200006A
:1000C00000A801007802000078AA01007802000070
:1000D000F0AC01007802000068AF01007802000077
:1000E000E0000308E0000AC8E0000508E0642DE82D
:1000F000E0000A88E0000A88E0000A88E0000A8838
:10010000E0681308E06819A8E0681D88E068232803
:10011000E0682C08E0683AE8E0683F08E06C02E834
:10012000E06C09C8E06C0D68E00009E8E00009C86F
:10013000E00009A8E0000988E0000968E00009483B
:10014000F8020006C1C381011E06A10B1A06810038
:100150009923E10097B397E3062C97730634E2C026
:10016000062CFC80C183E340E2C0061CFC980634E8
:10017000FC9C0634E340061C4138C183C143E804BB
:10018000C1C38105E100000CFA045E65EC100CF0BF
:10019000F41C5E60BC6E8861FF8407FC9A14D8046E
:1001A000E4300460FC124C06E0D04C4AC1C3821516
:1001B000C1C3C1C3F804170C81938183E2C00C2C26
:1001C0001C8CD167E36BE404E56B8E0580642968C1
:1001D0002A78E76BE96B8064EB6B8AC580642B68D7
:1001E0002EF8ED6BF16B806480642C482D58F36B16
:1001F000F56B8064F76B8AC5F96B8C05FB6B8C45DE
:100200000C0A8A458A65E4B4E4B80C0A2ED8844501
:100210004006E064404AFC1280D5E0D0C1C3C1C3AF
:100220001F0CC1C30FFCF004BCF4F784C153FD6480
:10023000E080000CE080000CE080000CE080000C0E
:10024000E080000CE080000CE080000CE080000CFE
:10025000E080000CE080000CE080000CE080000CEE
:10026000C1C3C143C1C3C153F81C040C617C0A144F
:10027000F984480270944E02E17C18347294501252
:100280005222A14B814170B072B04C328000000606
:10029000020622C5A62F8000A225A12BD86F196BBC
:1002A000448252CF00C4F914122416800000E0FCEE
:1002B000006484808B8B568081814E5F96800E54C3
:1002C00084800E70D6800E240E03CE7B230D8171A8
:1002D000E00000029C0050000EC4A18B108A4FA0C9
:1002E0000C80E480109A0C800CC4E5000C648898A3
:1002F0004C62C8A08171599C48A00EC4A0000C0695
:1003000061841824E184105420000E06E0304C1A59
:100310004D3AB28FC0002431A4204F0AED8C400A20
:1003200024314D7A83C140006200100CA4204F5A42
:100330006D8C421A1826C23F40002001E1841274DD
:10034000787C428080840C649803639F79A458620F
:10035000EC040C0064000C4A0101B17F441A8111C5
:1003600010046030C217E1FC243144FAB01F400091
:10037000241C4ADA421AC20710C46D8C4A52E0FCAF
:100380004000319D4422C377400033B13C810004DA
:10039000307FC0004D08C3C7444287F0A13D718043
:1003A00073844642DC004020DC004230F01C0C0C20
:1003B000C1C3DD93F80C044CF98448028141214B00
:1003C000040620454A228000A15BF98C1C004400F1
:1003D0009C004810213B9E050A2481610E14168062
:1003E0000A50E0FC0A348480A11B568096801804D1
:1003F000848018C0D68018141853D8CB235D81C1CF
:10040000E0000A529C004C501824A16B0C8A4F98B3
:100410000660E4800C9A0C800624E5000634888C83
:100420004632C89881C159B048981824A0000606E1
:1004300061840414E1840C0420001806E008461AC4
:10044000473AAE6FC0002409A418590AED8C400A3F
:100450002409477A8321400062000C0CA418595AE1
:100460006D8C421AE18410C4200104264E604000C5
:100470000A23F87C808406346C040A200A4AEF8F31
:10048000B03F640081212DCF600C421AE1FC0C24A6
:1004900042FAC2474000240D40DAAC4FC227243054
:1004A0006D8C421AE0FC0C3431B14002C3C74000ED
:1004B000338D421204244000C0003C81C3372CCF4E
:1004C00087F04B08881B040BF00C0C4CC1C3DD9368
:1004D000FA7C044C80AB028B79A040A2210B869B56
:1004E0000111846B84E58171F9A440628465A10BDC
:1004F0008C1B140BE800414882BB007B921B140B41
:10050000E80040E8900B009B680040A892038C1B19
:10051000F0AC42020C4C8E0BDD93F27CE686440E6E
:10052000E706460E60C00A240834E127E13760C0C0
:100530004A0E0A43420EE606443267864042F2887B
:100540005D93F094F2844222E50004CAC17C021457
:10055000DC004010848004CACC800420C908001448
:10056000C17C02148000045AAD88061420010606DE
:100570000004C0000214898840028908DD93998C28
:10058000E50004CAC0000206C0000006848004CA58
:10059000CC800420C9880014C00002068000045AE0
:1005A000AD880614200106060004C00002148988E4
:1005B00040028988DD93998C8055A11B0A00831124
:1005C0004006E550404AFC12D7F4E0D0C1C382B5E2
:1005D000C1C3C1C3F4040B3FF4040B2FF4040B1F7D
:1005E000F4040B0F0A508135405AEC404406E0BC3D
:1005F000446ABC22404AA090C0002089ED88401A7D
:10060000200101980AFFC000C1C3F404C1C3C1C3E3
:10061000F4040BF5F4040BE5F4040BD5F4040BC55A
:10062000F4040BB5F4040BA5F4040B95F4040B854A
:100630000AFF81550A50F404D7E4EC80D7B4D7D42C
:10064000D794D7A4D774D784820B9464FA005C083B
:10065000F83C044CE440048A212B80A58215803BA1
:10066000461281F5064AF98082B5F80C0420803BD9
:10067000044AEC04C548E4004588CD460C4C87FC90
:10068000DD93F03C6C400A204927E1C104208ACF69
:1006900006C06C04044AE440481264000033F08C45
:1006A0000275806B0285F0100295F80C02A5F8081F
:1006B0004C75F8044C85F0104C95F80C4CA5F808D6
:1006C0004408F804445287F8E92DF1B00A208675F1
:1006D00018246C100254E18818C061880211EC04DF
:1006E000E400184A608804144242866BD174F08892
:1006F0005988D97E043387FCF00C4450EE15A12BA9
:10070000212BF7F5EC95881B000CF7B5C0006101B3
:10071000F804040C780C000A8225803B9465A12B18
:1007200004204D16064AEC04FE25F80C9055E92DE0
:100730007A800814E440048AE0A00A440854A85FC0
:1007400006F5E0C00C24AA4F0A20619061C1EC407C
:10075000EC040C600C4A0ACF4E32E400862B70B0D9
:10076000E4400670F0104445F80C4445F808444550
:10077000F804444587FC4C08F1B044528655E92DF5
:10078000F9C107514A52A4530453FAB0EC100420A3
:100790000C240851C557E1886C041850E4040A6021
:1007A0006400184AD94E866B87FC59C8862944577D
:1007B000A12B8A3304208205044AEC04CD16E40000
:1007C00087FC45C8F0040C0CC1C3DD9304FC805BBE
:1007D0004006E2C0D56EFC12D58ED57E405AD59E1D
:1007E0004206E0BCD5AEBC22D5DED5BE426AD5EE0F
:1007F000404AA090C0002089ED88401A200101786D
:10080000C1C3C000C1C3C1C3F0044B85F0044B9504
:10081000F0044BA5F0044BB5F0044BC5F0044BD5E8
:10082000F0044BE5F0044BF5C21F81A5D51ED51E83
:10083000D51ED51ED51ED51ED51ED51EE0D0404ACC
:1008400082B5D52EC1C3C1C34B0FC1C34B1FF0042A
:100850004B2FF0044B3FF0048165F004D51EC21FFE
:10086000D51ED51E94FED51EDD938101E0041986A8
:10087000A3CDC1C3184A82A50246E0000215E14C8F
:100880004205800041FE8000BFFF1FFD0246DD9350
:100890008414E14C41FE84CEFFFF7FFDC1C3DD9394
:1008A0000006A11B5C08D4620006DA00DD93F42286
:1008B0001EF0025B0B0AEC40017EE47C1EF05FF848
:1008C0005C08C4404256DA000A0A700282A5E07C45
:1008D0007C2EFE1EFE14C121BE1E841FFC24BE14ED
:1008E000A22FBE29FE14FE2EA0F1213BDCB402147F
:1008F0001C340214E07C0A0A0414822BA14B5C3CD9
:100900005C00422000568A2B420E6206C010600036
:10091000C1C381C5E2C0021CBE094121A01F841FC2
:10092000E340021CC1C3DD93E07C040AC0880424B8
:10093000D08842120001024EA2038010E104040498
:10094000F080002467FD010A018E4FFF5C08FFF86C
:100950000024DA00C82760A060010606442047FF93
:10096000C03F73C1202F860F60010086A02FF800C2
:10097000FF21042EFC1240068101040DDA005C0800
:10098000FC1A44068235A12D7C0A44066000060646
:10099000872DC020DA005C08F3720016C1C3DD9316
:1009A000FA04047C747D064E090EC010C010747DDC
:1009B0008825893DCD14CD04050ACD244A00E08068
:1009C0008425F00CE4000A3A6001009804208000BD
:1009D000C116EC04F80C004A0420FE65E92DEC1069
:1009E000FE85C11EE00404CA8000454845C8C11602
:1009F000FBF587FCE14C004661010386801EC000C8
:100A000081119B0181318121EFFC73288C45A10B61
:100A1000747946CE084EC010C010747D8A45893D59
:100A2000CD14CD04050ACD244A00E0808625F00CC3
:100A3000F00C4C10E4184A5AE4000A3AA0000128CD
:100A4000600100A8C5508000EC040420004AC15693
:100A5000FE45F80C0420C554E92DEC10FE65C15E7E
:100A6000E00404CA80004588C156C55087FC45880B
:100A70000706FB6508F0E1488C4EE430E1584C462F
:100A8000E1584E4682458F6D023AD9140068E40061
:100A900080006001FC3842088161FF654046E16BDF
:100AA0004C08E1588B04DC38FE248914E86C552886
:100AB000000C8105C0006101FA7C040CEC301EF0D2
:100AC000864B888B806B847BFC9E8191E506405A27
:100AD000E586425A882B8131EFFC4FC867D1000070
:100AE0004212C0014486F2A48131E03CEFFC46484A
:100AF000640100004212C0041414F2A4D707E0D429
:100B0000FF01A0AF001481AB8055E1ACA10BFFA1A8
:100B100099B49B9497049514FFA18045A424800464
:100B20000AF0C432901BE42044388E4B807BE800EE
:100B3000AE24FC041249EC34A01BE018FB90408268
:100B4000920BBE0E74188C4BA10BE82C807B804559
:100B5000BE04BC7E8A05A10BE01C12890E069D9482
:100B6000B17FE00881B1908142AAD90A44AAE50286
:100B70004012E5828111F09CF28442225018902BA1
:100B800045FEEFFCC03F7FFD8095C50D7FFD41FE1A
:100B9000A11BC03F41FE8085C03F7FFDBE1482B1D6
:100BA000E50EC3BDBC04F8550C0C98F1DD93F27C46
:100BB000FFC1A11BD61780A5E106442AA14B81C124
:100BC000FF118285E037823DE1040244A21B80557B
:100BD000421A86138135E092FFC181118223A0233E
:100BE000980B942EC1C3DD93822B81014405860EA0
:100BF0004405F0804405F8744405F8784405F86C21
:100C00004405F8704405F8684405F8644405F86044
:100C10004405F85C4405F8589131F854E4C00810D4
:100C2000EC040630920EA13BF0084805F82044037E
:100C3000FCF5C90CE0040006E6400410664106100D
:100C40000810C004C0036641000081518A5EEC04B4
:100C50004455A10B4855F008D15EF900FCD5CD569E
:100C6000E00C41F6E4D04205420581010506E4D4DA
:100C70000610E008C0046761656102100420C00925
:100C8000A12BEC0446058E0EC50CF008DD93FE3555
:100C90006FD10019A11BC00500098245C006602D57
:100CA000F3F04000000CA90BDD93E200DD9381011D
:100CB000F0804412EC7004298405A12BE03C022949
:100CC000E682402A02098013C0056B71EC14000013
:100CD000E40800CAE200000C8101DD93C1C3DD938A
:100CE000F80C040CEC101EF0E03C0239E08808041B
:100CF000E6400420F0904A120A55844308C5E11CDE
:100D00008AC3E200E682463AE20048C5E0880A3437
:100D1000677102100255C0031804FC144C22E08CC9
:100D200004C5F0B09A74FC308AC381814A72C2371C
:100D30008613F2A06C0102130835C0019A5EE3002D
:100D4000823398CEE300483504098023C001600156
:100D500044018201C00160010C0C88F1DD93F00CAC
:100D6000FA04040CEC101EF0886B8A7BF98C482284
:100D70008465A14BE1840824E0FC0A340A34AA4FBC
:100D80008803E184F2844252EFF8716880E58F1B9A
:100D9000E41C434A817580F581B5FF01E418414A9E
:100DA000806B804580458904827E827B8101806ED4
:100DB0000C0C88F1DD93F2048265A11BE184081418
:100DC000404A80434022E0068C0EFB80DD93810187
:100DD000DD93FF01E100000C8435A31D8A0DFF5156
:100DE000E1840A14AA5B8055405A80534022E08671
:100DF0004032FA00900EFB00DD938101DD93FF018C
:100E0000F800040CEC101EF067FD00258434C001CE
:100E10008151864400218433C0056FC9E01802C5A2
:100E2000F29448426FCD00010255C005026BE01CF0
:100E3000864EE050843E84C3E01842C582618053F0
:100E4000E01C4255E05042630C0C88F1DD93F00049
:100E5000E03C0239E682463A8233C437E7DC0635A5
:100E6000CA54C844864381C1F2B04652C84ECA3EF5
:100E7000020180130435EA708033E020E02044351D
:100E8000EB700201E0240415E054043B823180132E
:100E9000E0244415E0544433000CDD93C0006101AC
:100EA000E03C0239E682403A8013C407E7DC0205E1
:100EB000E0100415E0140435E058044B8101801360
:100EC000F2804032E0144405441582414443E0106E
:100ED000DD93E058E100000C0029845B0A39E058FA
:100EE000C00163410239C72DC001605163494A21E5
:100EF0008085C00163414A210A49C001C0016345A0
:100F00008085C82D63454A21C237C00102C38613BC
:100F10000213E0300035E0C00800E0200A50E4A0F1
:100F2000C004676105D8980B000CE00CC00061019B
:100F3000FA7C040CECD01EF0AD04FE1EA974BE0EAB
:100F4000FC0EAB0404098111971EE038931E951E18
:100F50001006911E8D7EE0048ACB895E1080886B1E
:100F6000A18BEC04F11CD91EFE55DD1C836181C1EF
:100F700084CEFC14C6CE866E0206C4CEA10BE00859
:100F8000941EBE54D6CE966E9825D4CE8B0EC20734
:100F9000664116300C30C0041420E640C003657171
:100FA000664110308171C003A19BAC988F4E8E6555
:100FB0000009FE04C19DE010BE148265E0080046F1
:100FC0008301840EA808860E8101C60E9A14C40EF1
:100FD00004F09804BC2EE4A049FE8131CFFF7FFDD0
:100FE000922B8151EFFC6BE88F1495041005840E51
:100FF00006F0F90045F6E490921BEFFCEFFC6DE87B
:1010000089149304840C8E1308F0A004040EE48069
:1010100047F6F800921BE7FCEFFC6E0891048F4442
:10102000FC1481A5842E8321A808862E8101C60E7A
:10103000902EC40E8E138D148471840C8B0482B197
:1010400082A18F0B90618841EAF588810C0CE8F150
:10105000DD93F27CE100000CFA0C040CEC401EF075
:10106000827B846BFE0E81010E2BFC0E980EE050ED
:101070000E3B9A0E0E4BE054D80EE058E0184C236D
:101080009C049E14E01C4C33E0204C43E42010F000
:101090008131BC8E7FFD49FE8151C001EFFC662885
:1010A0008075A10B980EFC04DC04DE14E0540E2BBA
:1010B0008131BC8E7FFD49FE8151C001EFFC652866
:1010C0008075A10B9A0EFC04E0140E15E0100E05BD
:1010D000E0580E2B8131BC8E7FFD49FE8151C0014D
:1010E000EFFC64088075A10BD80EFC040C0CA0F179
:1010F000DD93F20CE100000CFA04040CEC101EF07D
:10110000827B846BBC2E8121E0180E05E0500E1B03
:101110009A269826DA26D826040E9E4B47F6FFF824
:1011200065B8E004A10BEFFCBC0480750E059806C1
:101130000E1BE01C9E4BE050FFF8040EE00447F647
:10114000EFFC64C88075A10B9A06BC04E0200E0574
:10115000E0540E1B040E9E4B47F6FFF863D8E004E4
:10116000A10BEFFCBC0480750E05D8060E1BE02415
:101170009E4BE054FFF8040EE00447F6EFFC62E8F3
:101180008075A10BDA06BC040C0C88F1DD93F20427
:10119000FA3C040CEC201EF0827B8A6BE038048958
:1011A0008101A18B8825BE0E664112301440C00417
:1011B000A408E4308445A10B9C229802A023A81A1D
:1011C0000024BE2E08F0E0B0040EE41047F6F8004C
:1011D0006038E7FCBE04EFFC1080980CA18BEC0497
:1011E00084618291F8D584A10C0C90F1DD93F23CDE
:1011F000F81C040CC8C88904CA78846AE010048901
:10120000D658861A8868806CE0140499821C8A2853
:10121000E0104051E01440614021C2C790C3E01883
:10122000F3F842C09273C277E0380629EC0402104A
:10123000F3F84A70E01C4011EC040250E020401129
:10124000C287A12B4081C2974091E02484E5E02829
:10125000E03806296641064043F6C0048141E00CAF
:1012600006C98151A1CBFC108351804542C28065E3
:101270008241FB84FCD5C54D8055A15B4011811195
:101280000C0CE02CDD93F01CFA7C040CEC501EF0EE
:10129000886B895E84AB867B9984829BE49008800E
:1012A00064910A801680C001C001669164D10080FB
:1012B0000280C002C0026491BE1EFC0E921BBCBE26
:1012C0008C3B8E2BEFFC6368E22410058695A10B06
:1012D000E43004806C188C1BFEAEEFFCE4801480BC
:1012E000942B8C1BEFFC70A88E2B921B89448C3B9B
:1012F00074F8965BBC8EEFFCFE24921B8C4B8E3BED
:101300007778945BA8F1EFFCF27C0C0CC1C3DD9301
:10131000F0804622EC70063986E5A13BE03C0439BA
:10132000E682403AF08046226B7106390630C005ED
:10133000E23DEC14C207845504038023C00263B964
:10134000E0140223E0180213411A850D400AE0045C
:10135000000CE184DD93E200DD938101E100000CEB
:10136000FA7C040CED701EF0BDC48D1EE0801E05DD
:10137000BF049B0EA13E910EE038060981018B0E41
:10138000A90EAB0E0206A70EFECEE0048A3BA35EBA
:10139000EC040210CD0EA11BFE75F10C87C181314A
:1013A000E0400469843E9114C63E86CEE008000603
:1013B000940E9B54EC040060010AC43E96CEF408DF
:1013C000D43ED63E0F188B010C0AC0008301F004F6
:1013D0008C5B890E850180658B04890EE08818047A
:1013E00066410040930EC002E64000400040FC0E03
:1013F000C0046641FF01BE0E81019D0E8101A50E54
:1014000081019F0E992E8F0E95CE975EA10B8B04B6
:101410008161AC05E03413C6BE74FC849CA8FEB4A4
:1014200090C5A1ABE0440409FA800004E400549A9A
:10143000200103F8A504C000A495A10B00098D04A8
:10144000C1ADE0109B1482A5E00800468701840E20
:10145000A104860EFC2400098101C60EA214C40E4C
:1014600004F0A004BC2EE54049FE8131CFFF7FFD92
:10147000942B8151EFFC4768A304A914801E8C03B0
:10148000000593049D24FC18FB8844129F149D2E94
:101490009F1E8211E53006F0EFFC45F648D8941BFC
:1014A000A704EFFC9924AC0C95C497540A1A8BB589
:1014B0000168F004C0002001830191148701840EAB
:1014C000A134860EFC2406098141C60EA304C44E35
:1014D000804E8C03F0984032E11C0005A50489255C
:1014E000E004001A200103F80409C0009B34E04026
:1014F0008E1E87110219A114001AFC24CE1EE008CA
:10150000CC0E8101200101C89F04C000E000001A38
:10151000E008005601689D14C00020019304862550
:10152000FC180005E53006F0EFFC45F686AB941B91
:10153000EFFC4448975495C481F5992400668814BB
:10154000A334E0088C1E8C33840E9B14A104FA355E
:1015500014008C03C00164718F14A8048F1E8211C3
:101560008861AC0C84B18DCB82918271D61590814B
:101570008211A514A51E8904D235C11DE0480409B5
:10158000C01D8F148D018225840E9114860E870153
:10159000C60E81019F04C40E82D5A10BE040040950
:1015A000F008000A82158F01840E9114860E8701BF
:1015B000C60E81011EF0C40E0C0CE570DD93F27CAA
:1015C000FA7C040CEC501EF0887B8A6B829B868B25
:1015D00099B480ABE4900AB0649100B002B0C0014D
:1015E000C00166D1669106B0FC1EC001BC0EBE3EB5
:1015F0008E3B921B6B588C4B1605EFFCA10BE1A4A4
:1016000004B08615940BE43052788C1B898EEFFC65
:10161000E48010B08C1B940B56F8902BBCBEEFFCF2
:10162000921B940B8E3B8924905B8C4BEFFC5E28C5
:101630000C0CA8F1DD93F27C063B8E040429E01C1F
:10164000C0016349E03C0219940ED2484A21D43CBF
:101650004A11E0184A41E01CDD93E020E100000C53
:10166000FA1C040CEC101EF0867B886B829B848B2A
:10167000E03C1209634910190480C001C00467618D
:1016800052788C3B0670E80C0870E430921BE480C2
:101690008C5B902B0C0C88F1F9F5F21CE100000C2E
:1016A000FA7C040CEC701EF0887B895E8B1E848BA8
:1016B0009485A18BBE0E9F04FE0E9D04E010060BC8
:1016C0008161FC0EFA801464E6401270E08C00A484
:1016D000F0804292FC001205A0018614E08816A456
:1016E000441281219693F288E2001215CB07F62767
:1016F00006F0A40F8B24E460E828664888F5A10B67
:1017000099218D046E58FC148914E828AC0E82B31C
:10171000F0A8407262410009A10BC001029084252B
:10172000C002640182618414E002401AFA800264FB
:10173000D11DC2A782A3FE14F0B5A80C00A481F5A8
:10174000FE14E08481118203FF01801CBE248711F6
:10175000880E8A1ECAAE8101B8F1C80EF27C0C0C4C
:10176000000CDD93C0006101FA00040C0649886B8F
:101770000659E02C8A04E030E04C021983218C34B5
:10178000AB2FA92F5F58C817980EE828F2000C0C51
:10179000000CDD93C0006101F87C040CE058025994
:1017A0008301A35BA55B8205A75B822581018C5524
:1017B0008155895181018351855181250C348DC416
:1017C000D647E088E00810A6FA80120454228C93D1
:1017D00014A9F0A4C0056B7184D5ABABE088149458
:1017E00014A584A304B5E7DCC00167FD16A4B6A365
:1017F0008674E17C96A388BF80C58FADB27E877169
:10180000F23EB08E8201F09EFA800E04F6B5CE5DF7
:10181000F07C0C0CC1C3DD93FA7C040CEC101EF0C0
:10182000847B886B0E9982AB0E89E0589104E0901E
:1018300067FD06B5BC0EC001903B862B7AD8924B53
:101840001409EFFCA10BE04C0E198A250210E0945C
:1018500004B0EC14C00767FDF40C028A4222D727BB
:10186000AB21F0A4A9218055FC081421061484138F
:101870008121FB80463A81110834E1268E43E088BD
:10188000E02808450A248221C15DFA808231CA47D6
:1018900006348813FC15FA8081118125E0200E257D
:1018A000E682402AA11DA013008484558C03E08C9D
:1018B000E0900025E0940035E17C08144232822358
:1018C0004015F2904025E09483E5E090E08C088498
:1018D00008058C43A22BE094E17C02240835830B9D
:1018E0008225E0900840C20D8235E640920E8101CB
:1018F00081A5900E0840C43DFE25E6404002A43379
:10190000920EF3840084903E0260E0888203E640F9
:10191000E0180E25E2000035403584339013E200D4
:10192000600102098201C0016001420188F1C00129
:10193000F27C0C0CC1C3DD93FA7C040CEC701EF03D
:10194000894E8B5E809B826B9F84A1B4E46008F01B
:1019500070B89DA48D14EFFCE0381429E4900AB00F
:10196000649100B00EB0C001C0016691BC0EBE7E95
:10197000904B8C3BEFFC6968E1A816058095A70B9E
:10198000A10B9C0404B084F5920BE4307658901BB4
:101990000CB0EFF8920BE4808C2B901BEFF87AE8F8
:1019A000920BBCBE8B248914904B943B42188C5BE9
:1019B000B8F1EFFCF27C0C0C000CDD93C00061016F
:1019C000FA7C040CEC101EF0867B889B022293B4F8
:1019D000A11BEE40AC5E812190C5BC2E81A19184FB
:1019E0008221C1345432C32DFE75FA288E85A0ADF4
:1019F000940B9E3B922B8A1BE8284E48A16B806B70
:101A0000940B8E15902B921BE8285148A16B806B8C
:101A1000BC948C158C45A19B9C0AA024C12DC72782
:101A200081619E1AC22D807582038885040681110A
:101A30008131FF40EFF454E8E0FC0414A40FC30725
:101A40008131C3174B78922B0404EFF4FF31E0A0EF
:101A5000F107872BA20FD017FF2180558045A10BDE
:101A6000AC2EFF2141FE8165C03F7FFD8161AC0E40
:101A700088F18C0BF27C0C0C8101DD93FF61AC0EC4
:101A8000000CFF85C0006101FA7C040CECF01EF034
:101A90008D2EFC5EAD14822B0215BE1E891EE01435
:101AA000E4900800E4100C00E48010008191817142
:101AB000FE0E81018B0E8101815181119B2E935E5F
:101AC00040909D3E0404F01CC407E084A4538D5450
:101AD0005842994E976EF180F1804462F82418457F
:101AE0004082958E8834F180B00480245452A14BFA
:101AF0000ABBF09CAACAFC1CE2000C0CE020145BA0
:101B0000141B8263A13BE024F0AC54C2E200100C31
:101B100090638AA3A12B82A3E000141AE200100CA8
:101B20009063A10B0C0C8F6E916EE200A00003F885
:101B3000E5124CBAE59248BAE18410A450CA906309
:101B400046CAE50E81C1E58EF2B04842E50A585A10
:101B5000445A90634642E58A481AF28C9863E5023B
:101B6000E582421AF2884432F0904062F2844222C6
:101B7000942B8131EFF442086401148A8615C10068
:101B8000A11B8B14EFFC55F69B249D34976499445C
:101B900093549584891484758911A31B95118045EC
:101BA0008311891EFE5E8B1E810181959D3481A16A
:101BB00099449B24958497648F149354981391C4EB
:101BC000CDACC90E82519071E2000E0AA041849101
:101BD000A081A0610014DC95000AFC9882C5E10098
:101BE000A10B8B04890482758D01A30B970180459D
:101BF0008701890EE00802868B0481758415A30B8A
:101C000002968901FC24E008FE44BE34CA4E881EB8
:101C1000E0104605460589044645E014F8F1E01C4D
:101C2000F27C0C0CC1C3DD93FE7C040CEDA01EF015
:101C3000FE2EBC5E1E15891EBE1EE088E4900800C4
:101C4000E4101800E4800C0081818121FC0E8101E8
:101C5000A10E81018101811181A19F0EAB2EB33EA6
:101C600000248E29B14EE088F1804A4246C2AFCEB0
:101C7000AD6EF180F1804862F8240A0590448C34FE
:101C800058329454A8CFF9800C06AACFD000600136
:101C9000E418589A180CA10BA13BE200200100584F
:101CA0008361C000A1649F6EE0000C1A0C2A9F643F
:101CB000421AE0049813E188E2000C0C1824A14BAE
:101CC0000058E084C0002001A12E83210E0C826305
:101CD000A15BE200A5CE899445FEB893CFFF7FFDBE
:101CE000FB884202FB885832FB884842FB884652F8
:101CF00020010048FCAEC0004092A9AE125BF0A0EB
:101D0000829AFC20A76E8E63E020006BE024002BFB
:101D1000E516401AE5264ECAE596421AE5A656CAC9
:101D2000E51A544AF0804A72E59A4C4AF28448B265
:101D3000E50A583A9453A3AEE58A463AF2984442EB
:101D4000F0B04852F28C5422F9A84442E000041A40
:101D5000E2000A0CA0000688FE249D5EA534993E90
:101D60004622A6230653F0A0915EE024E0200693CD
:101D700004239B8E8B6EFC2006548E62933EE17C86
:101D8000E17C0694928B8D3EE17C0624E17C12641A
:101D90008FCEA54EEFF079E8951E970E961B8E0B11
:101DA000923B8C2BEFF0796882BB806B8B14A30481
:101DB0008D34902BEFF078E8829B807B99148F0410
:101DC00093349124EFF078688073A524F2844092D4
:101DD00042028C739704F2AC95348E03F28C42125B
:101DE000E1841824E0FC06A4FF31A6CF12A4861DCE
:101DF0008141E104F1B04A42F3A448428055943B4A
:101E0000AD648ACBA774A9A4889B8055429298039D
:101E100062B8F284B334EFF0AFC4B1449D54AB2444
:101E200081959B84B3348101AFC4B144AB24AD64CC
:101E3000A774A9A4F09442729081CD0C100A82A1DB
:101E40008421E200A0C1A0413098A0610014DFFC11
:101E5000A114FC98005AA11B420AE1008711E180FD
:101E60008A2587018A55BE54E00804860476806579
:101E70000A35E008061AE0100188E000C0002001E1
:101E8000065AA134400AE004420AE99C8B31E18001
:101E9000923EBC44BC348265FC248C2E4A15CE2E66
:101EA0004A05E0104A25E0141EF0E01C0C0CE5A0E9
:101EB000DD93F67CBE548D018511F605E00804869D
:101EC000FB85F4F5E100000CFA7C040CEC101EF02C
:101ED000847B866B4586828B8E0BE020EFF07BA89F
:101EE0004E0189014E01E0149F01E0184E018F114F
:101EF0004E11E01CA101E020E2301015E0244E015B
:101F00004E018D214E25E0280614E2280814E10C2C
:101F10008101E1108317A8334E05C437A613E22CC4
:101F2000E2304E15E2384E25E23C4E05E2404E05C9
:101F30008321980ED80E9A2E4C05DA1E4C25E010FF
:101F40004C05E0144C05E0180206E01C0470E004A7
:101F50000670E490C0016691EC040210C90EA11B4A
:101F6000F9004603FE35CD0CE224100580C5A10B17
:101F7000851183019A1E980E12708565C00264D186
:101F8000E4901480E4900270649116800670C001A1
:101F9000C0016491940BBC6E925B962BEFFC57686A
:101FA000A10B98048B018415E2284E0566910480EC
:101FB0000670C001C0016691940BBC6E925B961BCB
:101FC000EFFC63480C0C88F1DD93F27CE100000C1F
:101FD000FA0C040CEC201EF0847B866B4586828B09
:101FE0008E0BE018EFF073684E0189019F11E01429
:101FF000E0184E01E01C4E1110058F114E11E1B09A
:10200000A121E020E0244E21E0284E21E10C04042F
:10201000E1100604E1A84E150604A623C427E10436
:10202000A4338101E1AC4E05E1B04E35E1B84E1567
:10203000E1BC4E05E1C04E059A1E980EDA3ED80E60
:10204000E0104C05E0144C15E0184C05E01C4C0564
:10205000E0040206E4900470649106700210C0016E
:10206000A11BEC04CD0CC90E1005FE75A10BE1A45B
:10207000830180C5980E911183159A1E66D10A704E
:102080000080C0010270E4900480E490C00164917B
:1020900064910670BC6EC001EFFC4F880C0C90F18F
:1020A000DD93F20CE100000CFA7C040CECF01EF065
:1020B000847B88AB80BB829B8084B304A18BAD14EE
:1020C000D4048F5E951E970E930EC60A10D68075A7
:1020D0008E18E00CA804CC288341AA34A34F815168
:1020E000E0184E53E88804445438A111806BE8246A
:1020F0009E74917E8625A17B8111AC04E3E80406E1
:102100005E7881318131EFF055588E2B0404EFF069
:10211000D017E1E0A12BA22FE0A0020480E5A404E7
:10212000E000044A817580F58155A404E400434A27
:10213000820B8045EE1A998E400AA634423AE68612
:102140000414E582040AF680403AE0808275E502D4
:10215000E1DC0404E0A406140424A62F9221F680F6
:10216000EC9C0422F6800664E0005006110AA68367
:10217000FD71E44CC00012D8E00046968683A4337B
:10218000E4A8108A048082355FB8ECA40446EFF01E
:10219000B023E004B721812581818D2E8C2B8131E4
:1021A000EFF05988121B823BA11BE01444869485F2
:1021B000441AE03C0824E68AC85BE184833BFF11B3
:1021C000E414415AE184400A46328043FF01F2A000
:1021D000880B8045804599648131861BEFF04EC89D
:1021E0008C2B8131EFF05768F6800414E080040AEC
:1021F000060480958623F680E47C050A4C068AD581
:10220000A463E000CD2D8D24C0000E388331A16B76
:1022100080658121EF980434E4800C8AAEC5977400
:10222000E5000C9AA0000C480C4881410048C00011
:10223000C000200106248141C347E0FCC327A64F0C
:10224000422288038C2BF284EFF059C88D848B0EC8
:1022500081F5AC8397C5FF71E00043F6A6138D347A
:10226000FB884212EC8010108B0EB10F977486839E
:10227000AF649304E02C0C35FA1C4402F680002471
:10228000EC6C0002E1840A34E8801824C2CDCA1B39
:10229000E41402008075FF41F09448C2E080420AD5
:1022A000E00E484A824180A50200C3479504E4102D
:1022B000F00A4A4A120380CAEC4AE0104A5AC3178D
:1022C0009011E6B2E4E018F0FC8EFECEBECE8BC4D8
:1022D0008E1BBC1EE8004828A17B807BB1049E3584
:1022E000141B800A9924E018E682402AE18406142F
:1022F000C40DC62B8075FF21F08C4402E010120340
:10230000E02C0C3518F0EC4A4A2AE4D0FECEE00668
:102310008911FC8EBE6E8B649714BC1E45D8822B2F
:10232000807BE8009495A17B9B149D04E010122310
:10233000FB844002E9A002646FFD1402401AC03F12
:10234000421AE50A0624E58AC527E17CE0F808344C
:10235000C537A82F48A391444BB8E018806BEFF025
:102360009914829BE52A401AE5AA421A942B8131DE
:10237000EFF04B08C8248F2447FE8B27C0077FFD52
:10238000F1884432E17C0624EFF04A48E1980414D5
:1023900084A5859B8615C49D046083B50434EC80B8
:1023A0000C9AE8883418E500C3FF3FFD8141812184
:1023B0000834CEE533F8E898E7E5BFFCCD07F4171D
:1023C000C06DA20F810180A5420391148E0BE0180D
:1023D0000C0CF8F1DD93F27CFA3C040CEC201EF0BE
:1023E000869B888B806B827BBE2E913400F0BC5E16
:1023F0009E2BE4105A188B11BE44E800C64DF731ED
:102400007FFD43FE45FEC7FFC7FF7FFD88418095E6
:10241000E18C0444C64DBC4488418095E18C024463
:10242000E6A2468AA19B8413E0880414E0A002344B
:10243000BC1EBE2E80000F28E1840494C61DC43B40
:10244000FF31FFA146128075423AF088BC1EE0269B
:10245000EC0C0200E41000F0A1319E2BE80056E8DD
:10246000953BBE347FFD43FE45FEDFFFDFFF7FFD72
:1024700082318085E1840434953BBC34823180858F
:10248000E1840234461682230824E000A033F6805B
:10249000FB904632E080060A8055BC1E8603BF31A1
:1024A000EC040200E080420ABE2EA72FFF0182A5A5
:1024B00041FE812BDFFF7FFD82218085E1840024A6
:1024C0000210BE0EBE24EC04409AD097442AF00AB3
:1024D000A10BF00A0A18BE2E048480000622F680A2
:1024E0000404EC700A84E184C44BE88CFF81C85D6D
:1024F0008075FF41F0884852E002484A00F0C31757
:102500009E2BE4105198BC4E801BE800913BBE34DA
:102510007FFD41FE45FEDFFFDFFF7FFD82318085CD
:10252000E1840434913BBC3482318085E184003401
:10253000440A84030824E582BE0EF680E47C090A7E
:10254000E502400A1010C217BC2EEC085206929504
:10255000A893E0008331A19B86A58111EFA40234EA
:10256000E480128A129A866501F8E500C000200115
:102570008141811100488695C000200106148141E7
:10258000C65BE184C3478B2BA81FFE17454A84A571
:102590008355E414E480128AA81BF8F5E884023419
:1025A000E500129ABFFC3E68F8C58141E8A40834F2
:1025B000BFFC3E68C24BFD55E410414A44328013D3
:1025C000FFA1F2888045FF01FF11820B841B80452B
:1025D0007D78922B950BEFECFF0180558045A11B78
:1025E000B283FF01BC0EC47700F0BE7E9E2BE410C8
:1025F000903B8B11E8004A28BE14BC24A12BA223D7
:102600008265BE2E068A95349314E480815182152A
:10261000E0004E068545824B91B5FF01E00048067B
:10262000E98C0A140E54A6438873F6808141A17B7D
:10263000081490250E8AEF9C8EE5E480E5000E9A42
:10264000200104488141C000903581512001044897
:102650008151C000E1000E0A805590251824814167
:10266000D88BE184834BFF11E4204B5AE184400A6C
:102670008AC38181F2A04A428045FF415032984B83
:102680008045F18081318A1B6958880B0414EFEC76
:10269000050AF680BC1EE47C88958E83E0004E0619
:1026A0008E2BA473EFEC76E88665CF8D8181BC0E0E
:1026B0000E8A8595F075E480EC800870E890081427
:1026C000E5000E9ABFFC3C18F0258151E89C0A14E5
:1026D000BFFC3C18E1000E0A8151F035F905F00508
:1026E000500AAE83BC0EE080FF1182A543FE830B2F
:1026F000DFFF7FFD82018085E18402041080BC1E23
:10270000BC04EC04F00A400A8511C387440AB11FD7
:102710000614E69AC60BE1849704C02D0280BC2EF5
:10272000FF41E40448228075E34FF08C8101804E24
:102730000C0C90F1DD93F23CF804040C88548044B6
:10274000E0005806F6800C44F1844EC2F6800A542C
:10275000FB984C720D0AA6C34EC2E47C8151FB94D7
:10276000807581C1E8981844E47C0F0A807580CE9A
:10277000AF5F8854F0845862F08C4872885EC8CD90
:10278000A6C384C5F19C42C2E47C030A82B58131B0
:10279000802483310A34A33FCA3BE184FF31C62D34
:1027A00046228075E33FF0948355803E4042A24329
:1027B000010AF1988111E47C831182950614A11F0E
:1027C000C61BE184FF11C25D42528075E11FF08C8F
:1027D000984B881E0C0C880BDD93F004E100000C74
:1027E000F81C040C84138403E18A400A421A821103
:1027F0000420E18A1804EC0408C5E088CAC7FC304C
:10280000E08C0C04F0984E52FC180A659E84A6C316
:10281000E17C12C4180498635082E0848AC3F2A455
:10282000E900189B9E8E850D9C6E8291E90058935D
:10283000810180B5F815830B82018145F695830BE4
:10284000F01C0C0CC1C3DD93F81C040C61FC1824B3
:1028500004C3A20303C786030BC481814C0AB803D7
:102860000034618E0904E088F0804E420C13948E8F
:10287000421AC4678863618EB08E808EC4170223AB
:10288000618E462AF08444424242C4370670708CFE
:10289000827BEC101494D9841093C66DDC004C40FC
:1028A000DD84949EC67D30944E401093309EDC00B3
:1028B000FC35856BC9C480549853C62D4440005ED6
:1028C000832BDC000C0CFE35DD93F01CE100000CCA
:1028D000F87C040C70805852F094501282811823B6
:1028E00061964E2AE0880C540C600D2458CAEC10F6
:1028F0000F04E196523A8E3302746196508AE08852
:10290000462261964222F084815170980EC4137B56
:1029100002C5E088449786CB58228151869B70A4DB
:10292000C29DE5A452209453999BDC00234DFE5593
:102930005202C4878063709C800012754E720265DB
:10294000FF719094601C491A12758A7B4E72A00028
:10295000657EB194F0A04E026418531A5090808B9B
:10296000501ABC0002A8E01CFF91A000CDB4F1A455
:102970004AA28AA310A5F1AC02458000909454A20B
:102980006024491A10A58AAB54A2A00061AEB1948C
:10299000E404591A3C015820471A40004620E40438
:1029A00040003C01E418511A548080AB541ABC001A
:1029B000948B601C3FFD3DC88101C3FFF07C0C0C73
:1029C000000CDD93C0006101FA7C040CEC301EF0B9
:1029D0000084808B9003E1FC1404CA379433E10433
:1029E000E0A2403AE17C1804E17C065456C2AA03F6
:1029F0004602F38CA13BF9AC90259734FC3EBE1EF9
:102A0000E1FC0C04E08406B4E17C0A44E17C182477
:102A10004A52A443FF21F3B0845D8171E1C01244A6
:102A2000F18044724272E05780CBF3AC84CB805586
:102A30000404AC3FB25FE0848055E04740C282BBF3
:102A400042B2F09095B4F294EFEC4108B483C2A77F
:102A50008095A38B64010000FC34C004D617BE141B
:102A6000D6B78203E17C02048013961FE1AE401AC0
:102A7000E00000026BFD00028155C7FF7FFD41FEB3
:102A8000FF71C0018E0B8C0E0C0C98F1DD93F27C63
:102A9000FA7C040CECD01EF08F4E915E8D1E849B50
:102AA000933E8B0EA10B8C08950EAF04990E8101FD
:102AB0008465970E84189314042095248131E58051
:102AC00044058231C33DF860F83044054405C90E21
:102AD0004405E02CFCB5E05C820893049AA5A10BA8
:102AE000ABA4AD748181A9B4E0840A8480538F04BF
:102AF000F0900AC380CD9402028488B59504E088E2
:102B0000061080130810E4C09402E6400AC089CE83
:102B100058B2EC0482C1F094E1AE58CA1465C4C73F
:102B20008C24FC308C2E8C238464E424846E846397
:102B3000FC300E25825190C484C3815DFA5590CE3D
:102B40000C8489C49514E088FC1802250C15826356
:102B5000A021E030E19408248331C81D984EB83399
:102B6000441280A54C25F1908B24E060E0300429CC
:102B70008033A12B81018095E0904C050C25A604A3
:102B80008D44E09008F0D058FC4EE4B0E4C008F06A
:102B9000FA8018B4FB000634BCCEBE4E6498914453
:102BA000A10BE80097148095E0C04C15861893148B
:102BB000C38D82818125E655E8F18101F27C0C0C00
:102BC000000CDD93C0006101FA7C040CEDD01EF016
:102BD000952E975EA50E931EE0AC1E154203810153
:102BE0004203E14C4203E1484203E1444203E14035
:102BF0004203E13C4203E1384203E1344203E13065
:102C00004203E12C4203E1284203E1248E28E12023
:102C1000B70EB90EB30EB50EB10EA12BAD0EAF0EA1
:102C20000CF8AB0E1E0580001E25E0A8912EE0A436
:102C3000E0A01E55E09C1EB5E0981E251E25A12E85
:102C40008F2EE094E0901E250CC0A5C4C002650143
:102C500018C09F6EC0046601121099CE1400E640A1
:102C60000C00E4C01040E640FF41E580FFC18171E7
:102C7000A33E8101A7BE9D5E8DC59B2EF8C01003AB
:102C8000F8301013A7B481219144963B6D98995464
:102C9000A10BE8009D54A334FF419B24A075A9C457
:102CA00096039802560AA01200F0E1AE06F0E58005
:102CB000A93EE5B0E5900AF0BC3EBE0EA734960BE7
:102CC0005C389F44A012EFFCE5A000F0E5C00AF0DC
:102CD000A904BE0EA724BC0E960BA9BE9B2484BBE0
:102CE000A544963BEFFC5B2800099504A10BE0305E
:102CF000A0128405E55000F0E56004F0E5700AF0EC
:102D0000BC2EBE0E9B24A9049944963BEFFC59E8C7
:102D1000800A9304B924A90EB544B734AB04B35464
:102D2000AFB4B1C4FE0EAD14A7B4FCBE97048D9E23
:102D30008F048B0EBE1E890E9B04BCCE62D8A914D4
:102D400080CBE814A3348101FF419D548C3589CB9D
:102D5000A81485C563FD020A8A65C7FF8875A10BA3
:102D60001003A9CE1013F8C0A124F8308A4B963B6B
:102D7000A5548ABBE80066688085A10B965BA334E6
:102D8000100381F51013F8C08121F830964BA73459
:102D900065789F54A10BE800A334DC45A7B49D548B
:102DA000A9C4FF4180B589CBEFFC43F6FFC1A41C49
:102DB00082718E188491C37D846188A1F2558481CB
:102DC000E5D01EF0F27C0C0C000CDD93C00061011C
:102DD000FA7C040CEC501EF0866B88BB828BBE2EF6
:102DE0001450809B8171E6A004868111940BE0044D
:102DF000EFEC49089A08896E8C45A10BBE64E0B1DE
:102E0000000AAC04C7FF63FD16158885A024F830BE
:102E1000E042A43A8C0BE458E8004288AC14FE0E61
:102E2000A43AA024E458E04241F88C0BFC0EE800E0
:102E3000E0301615A43AA024E458E04241588C0B27
:102E4000FC14E800FE14A81CE0305413E0605403A6
:102E500082088904C17D827184A188B18101F45501
:102E60000C0CA8F1DD93F27CF804040C581AA4139E
:102E7000FF21E482401A84CD020EE4020C0EF80019
:102E80008065F800E8000C06E17C0EC4587280638F
:102E900000C4F2B00E04E17C8101E1C058C28E632F
:102EA000E0C7F280B86FE167486A8863844DE48EBA
:102EB000E40E446AE0800606060E80751844FF8022
:102EC0008433E17CF29044C2E17C08248833E947F2
:102ED000F2804422D937E8274232A43F0212FA0492
:102EE000C07F6BFD80C5A11D80E5A05DF0040C0CCA
:102EF000820BDD93FE75A05D0C0C820BDD93F0045C
:102F0000FA3C040CEC201EF0867B886B1009808B49
:102F1000A034E02CBEAE81A1A14F8341BCAEC82736
:102F2000841B820B6258882B809BE81C04F0D8AE6F
:102F30009AAEE410921B8E0BE81C67C882D5A10BD9
:102F4000BE04A214D80E9E3B922B8E0BE81C63A8E5
:102F50008095A10B9A0EBC0490F18101F23C0C0CFF
:102F6000000CDD93C0006101FA7C040CEC301EF013
:102F7000869B88AB807B846BE02C0E09E0300E29A9
:102F8000E0100E4B83519C34A15F81B10454FCBE10
:102F9000BEBEE888881B820BE81C5EC89901808B46
:102FA000E4C002A0EC040000C5BEA10BF83442B599
:102FB000E02C42B59A08FE158C65A10B1290E0A199
:102FC0008101E580A10B81B1A40488B5E42004F05F
:102FD00062F8901BA10BE81CFC0486B5A404A80EA3
:102FE00006F09E14902BE410E81C5EC88455A10BDB
:102FF0005405BE041205F8309E14E060E41006F09B
:103000005DF8902BA10BE81CBE0480B5E0305405A0
:103010009A188101C3BD82B1889188A18125F4B538
:1030200098F18101F27C0C0C000CDD93C000610171
:10303000FA7C040CEC101EF0846B888B9114827B5C
:103040009594A11B88C593A4463AAB3F441AE68EDB
:10305000423AE686463AE5020024E58281B1E184FF
:10306000423282038131F2ACEFE85A68850BFF21CE
:10307000A11B8665A18B8695028480C58C13E18493
:10308000E022561A80638E6342BA8CB38101F00A43
:1030900043F68155FF01EFFCA8BEFFB188F1A41EE5
:1030A000F27C0C0CFF01DD93F8C5A11BA18BFF0185
:1030B000FD95F8B5E100000CE682401A64010000BD
:1030C000DF07C0406FFD00020004C03FDD93FB80BE
:1030D000FA7C040CEC501EF0828B849BA38D80CB79
:1030E00081A181618311845581B1920BF008002583
:1030F000F804004584A3911DF2AC5642028A80E593
:103100008211E6408125FC9500A481B102B4E184DE
:10311000A20FE0FC00B4FE0EFC0EE1840E30BE3EB9
:1031200089CEE430001481650378E8B08765A0009B
:1031300082E5A1BBE00016CA908581019045916DA2
:10314000A12BA6248225A414E00004CA87A5821519
:103150008101A1AB8765FC958C85A11B8101A1CB69
:1031600000148065188AEFB08255E480EC8000C0BE
:10317000E8800414E500189AA00000A8B92F8195F2
:10318000189AA02F0048E500C0002001810181218C
:103190000048F275C0002001FE148101FC14820376
:1031A000F2844222963B942BEFE8506867FD008A38
:1031B0008075C0FFEFFC41F689C4A11B41F6806514
:1031C0008261EFFCE2400C0A9091DD0CBE04EC55EC
:1031D000E0184081E01C40C10C0CA8F1DD93F27CAA
:1031E000F81C040CA14B8A48021088A50814EC04B2
:1031F0008813E1FC804083178A288200E4600A304B
:1032000081C1E031D57A836146738873CD8AF860D5
:10321000128480830E74FB004E62FB0082C1F19C1D
:10322000C5CD9273FB1C4E12E02C4683E05C4673C6
:103230008101FA75F01C0C0C000CDD93C0006101DB
:10324000F83C040CEC101EF060880C340EB5A33D65
:10325000F0985852E4100E507A9C52C28E93CA7B5A
:10326000E18810944E808281A17BF01C2EAB826598
:103270005D2E8A7BA1AB82A1128AFEB580C5E47067
:10328000128A85458A7B6470538E88155FFF7FFDA7
:10329000928FEFA15292D09B9093FA28C797A0915A
:1032A00083B39313E800311CF0204E25F81C4E2503
:1032B000F8184E25F8144E25F8104E25F80C4E251A
:1032C000F8084E25F8044E2586030613618E420A3F
:1032D000E4040410E18E402A8465811B0414440731
:1032E0004252E0888863708888230803CD2DC93452
:1032F0004440C53ED91D1C001C004250FCF5812BEA
:1033000088F10101F03C0C0C000CDD93C000610160
:10331000FA7C040CEC701EF08B4E8A6B828B847BE3
:10332000A3B4809B0034A1A49F14E1FC86038D3ECE
:1033300083079D34FC2EA02B891EAE23FE3EBE1EAD
:103340008141BC3E901B920B6C388E3BA10BEFF879
:10335000BEAE8675BC0EFE04920B8141FC24901B10
:103360008C5B8D34EFF86B6882D5A10BFC048D2447
:10337000BEBE8023BC0EFE04920B81418E3B901B8F
:103380006A788C5BFE0EEFF890CB909D89048B746D
:10339000A71488F5A5248D1EF0A44662E19A463A4A
:1033A0000045C4371455FC0C801BFC0C16C5980B4B
:1033B000948BFC0C564296AB8E43F19CA8538AB377
:1033C0009853B8B3820B80CBF08C48228D14999D12
:1033D0008291823394BB90BE8C5E90ABFE04F6D596
:1033E0000C0CB8F1DD93F27CFA7C040CECD01EF0EE
:1033F000934E8A6B8F2E913E80BB828BB144B32457
:10340000AD94AF74A904AB548101FE0E970E990ED2
:103410009C0E950EE00C41F67FFD43FE8B4EC001E5
:103420008D2E900CFF41881E91A4897EF0AC4062E5
:10343000E19A420A0A25C417A12BFC04A12D848518
:10344000121584C5A11DFC0482018E55E19A400A23
:103450000A15C407A11DFC0012058C55880DFC003F
:1034600081958AD5FC0412058A25A10BFC0412055E
:1034700088A5880D9C0E830180BC8B04E4A000F01D
:10348000E4B002F00AF08A7BBE0EE4C0960BBC1ECC
:10349000942B8F14FE448C3BEFF85D88973499246D
:1034A0008D049544BC6EBE0E961B940B68D8935445
:1034B000FF41EFF889748E5B8075890B9C0E81014A
:1034C00091BD82B19C048085EC25A10BE8F18101BE
:1034D000F27C0C0CC1C3DD93FA7C040CEC101EF0E2
:1034E000807B826BE0140E09FB81F40D0E199C5554
:1034F000F01DE018521A9AD5130AE6829A35E500B3
:103500009C18DC08D8069E289A268C0BF0304011B7
:10351000E0140E190E39DE284011E0104031F81C7D
:103520004021F8200E19F8240E29E0200E39E01869
:103530004011E01C4031F8104021F8140E19F81821
:103540000E29E02C0E39E0244011E0284031F80427
:103550004021F8088181F80C040681114D98E0089B
:10356000A19BEFE800708CC581B1E490C124831168
:103570005622D31D80A5FAACE500028AFE15821101
:10358000E1D000B4D8B7BC0E9861C871818183A125
:10359000A12B9C24002486A59603E1844212BC142E
:1035A0008131F2A0EFE4708867FD008A8075C0FF6A
:1035B000EFFC41F68065A11BEFFC41F6D90CD3ADC1
:1035C000148A820582A1E500F8758871FF81812542
:1035D00088F1900BF27C0C0C000CDD93C0006101B3
:1035E000FA7C040CEC101EF0840A806B4C05864AB1
:1035F000C40AEDA8EDAC4C45E0200249E10004C945
:10360000E1040479EDB04C05E1080409EE244C45D1
:10361000E10C0449EDB44CC5EDB84C75EDBC4C055E
:10362000E02C0405EDC04C45E1100441E11404C157
:10363000E1180471EE284C05E11C0401EDC44C4571
:10364000E1200449EDC84CC5EDCC4C75EDD04C05DE
:10365000E1280409EDD44C45E1300449E12404C9D2
:10366000E12C0479EDDC4C054C4581014C05EDE481
:103670004CC5EDE84C75EDD88804EDE0C8C48A442B
:103680000485CA740495E0344C05E0384C45EDECF3
:103690004CC5EDF04C75EDF44C85EDF84C95EE48CD
:1036A0000405EE4C0445E03C04C5E0100475E0144C
:1036B0000485E0180495E01C4C05E0204C45EE50D4
:1036C0004CC5EE6C4C75EE704C85EE744C95EE78F6
:1036D0008C04EE7CEE804C054C058E04CC04EE840C
:1036E000EE884C054C05CE040605EE8C4C05E0102A
:1036F0000605EE904C05E0140605EE944C05E01826
:103700000605EE984C05E01C0605EE9C4C05E020F5
:103710000605EEA04C05E0240605EEA44C05E028C5
:103720000605EEA89D84E02CEEAC4C05E0300605C5
:103730000435A394A1A4E02493C4A048EEB04C05A2
:103740004C3595749734EEB4ED804C454CC59104DE
:103750009944ED84ED884C754C359BC49F34ED94B1
:10376000E0300425ED904C4566010E604CC5C00D5F
:103770004C55ED8CFF41EE34EE000422EE044C4536
:10378000EDA44C25ED9C4C35FFF8048E49CE8331D9
:103790000CC5FFF4A4C3ED9CEC040420B036892BC7
:1037A0008121FE35EE3C4C25EE204C05670104607E
:1037B0004C25C0060460ED98C0026501EDA04C6583
:1037C000EE2C4C2566010460008AC0044C25E08084
:1037D000FF01EE30EE144C058815FB01EDF80C35B9
:1037E000EE280C458655874DEDB40C25E4081820CD
:1037F000E17C16C496C3FDB7A1B185C7A9BDB8B316
:103800000CC582B50CB5EDC496CDEDC80CC580F5E0
:103810000CB5EE7896CDEE7C88F180A5F27C0C0C90
:103820000CC5DD93AACDEDCCA041FE35A64398335F
:10383000FC95A94DEDD00C35FC15AC3DE4040620FB
:10384000E1FC0834A13186438347B833F8D5893D7C
:10385000EDB80C45EE240CC598438643F6D5854D4E
:10386000EDD80C358901A23DA13B823584259121FB
:103870008675A33BE00C47F6A53B8325A73B8285D5
:1038800047F6849545F6E00C41F6E00C8175E00CB6
:103890008155A131E00C47F6E00C45F6EE544C356D
:1038A000EE584C25EE5C4C05EDE00C358901A23D4F
:1038B000A13B8235842591218675A33BE00C47F618
:1038C000A53B8325A73B828547F6849545F6E00C0A
:1038D00041F6E00C8175E00C8155A131E00C47F612
:1038E000E00C45F6EE604C35EE644C25EE684C0578
:1038F0004C55C60A4002EE344C05FA148E0BEE34D9
:10390000E80C59884B188E0B8E0BE80CE80456E82F
:1039100073788E0B0C05E8088311EE384C15BE0D3C
:103920004C15EE184C05EE1C80D5EE3CEE200C1527
:103930004C1580130C05EE3C0C15EE3C8203EE207A
:10394000EC040000EE404C05EE444C0582B1FFB1A2
:10395000E71C170AC00009D8EE180C0584D5A10B86
:10396000EE1C0C058225A70B8265A50B9015A30BF9
:103970004B788E0B8185E8006D388E0B8145E80011
:1039800056388E0B0C05E800A30BEE188E0B8095B5
:10399000FC385408EE180C058A95A50BEE080C05AA
:1039A000EE400C15811D8401FA044002010A809545
:1039B00080B5E040E0440002EE404C05EE400C15BE
:1039C000EE280C058095801D4C0582010C05EE400B
:1039D0000C15EE208721EE3CE68A400AEC38000008
:1039E0008065801DEE3C4C0552088E0B0C05FC38A2
:1039F000A70BEE180C058855010AEE408095E040B3
:103A00004C05A3010C05EE400C15EE088401EE40B8
:103A10008065811DEE404C05EE200C05EE3C0C153A
:103A2000400A87210000E68A801DEC184C0580655D
:103A30008E0BEE3CE80851A8EE180C05E215AF0B12
:103A400068110C098201C003F000000A0204A206FA
:103A50008101FA809FFC2E38ED9C0C35EE200C2560
:103A60008C42B031E0300653E18A584AE18A485A24
:103A7000E810590A46438CCC8085E03046438443A5
:103A80000210E030A11BEC04FA958431FD01D975D8
:103A9000000CD955C0006101FA3C040CECA01EF0EA
:103AA000A564A1C4AD84A974540EAF94C010647908
:103AB000158E93AEC0106439ABA491AEA7948F9EBF
:103AC000A3848D8E897E8BAEFC6EFE9EBCCEBE8E98
:103AD000EFFC58880C0CD0F1DD93F23CE100000CB7
:103AE000FA1C040CEC101EF00C05806BA10DE08894
:103AF0000C1580B5830DE0BC8F0180A5E0984C05C6
:103B00000C158BD50C25E13C8223E0A80C75850BA8
:103B10008255E018E07C0C2580D5A12BE1D00C2942
:103B2000E080440A0C1992F5420AE1D080E5E08871
:103B30008C1B8321E8086428E0884C05E0C40C0550
:103B4000E0340C15E0A00C25E0A80C35801387416B
:103B5000E692442AF18C48128541854DE0984C4507
:103B6000E09C4C45E0BC4C0586238095EC0402208B
:103B700086E5801DF18C44120E45C4270C25FC08F7
:103B80000A10E0ACA653EC04C457C447FC1004353B
:103B90009C448A730445C447864DFC10EC04021013
:103BA0004C158095883BE0BC0E70801DFC55EC10D8
:103BB000E0880C054C05840188F1E0C0F21C0C0C77
:103BC0000C25DD930C35E078A12DE084E40404306D
:103BD000E0844C250C4586D50C35E0788243E02006
:103BE000E0880A1481518A730E8582CBDD94F81027
:103BF000C497C487FC200685FC240695F1A050924A
:103C000080458A8D89CD981B4A8282C1FAD5FA14E3
:103C10000C4598340C55E01C0630E03C872DEC0434
:103C20008443C227481382534853E030D8C5E0602C
:103C30004C1583118201E098E09C4C15E0BC4C05CA
:103C4000000CF7D5C0006101FA1C040CEC101EF04A
:103C50000C15806BA11DE08C0C058235801DE08861
:103C60000C0580A5830DE0BC8F018205E0984C0512
:103C70000C0C88F1DD93F21CE1400C25E0A80C351A
:103C8000F18C46220CC5871B0C45E0180C3BE0B4B8
:103C90000C5BE0508275E048E0800C7580F5A17BFC
:103CA000E1D00C79E0804E0AC0000F88E0700C254E
:103CB000E03C5086F1844E02907DA4830C2596450D
:103CC000FD81E09494A5912BE0340C25E4041020B0
:103CD000E1FC128483879283917D84834E12924506
:103CE0008271F080E1FC1074C2779073907FF9814B
:103CF00018758EC30C85F80CC477E010FC1C108579
:103D0000E41012804A9AC797C647E6960A50A04127
:103D1000C957E5007FFD538ECB47C3FF0C95925FDB
:103D20008883E0208A83B2C4F00A4A8AFC1C127598
:103D300012C5C4C7465AFC30A873E68EE6000630AA
:103D4000D137987384A5867DE0840C358231984400
:103D5000E01C0C55E0844C35EC040840C237893D2A
:103D6000F18844024A2386534A03E030DEC5E0600E
:103D7000E1300C054C25FF218C2BE094E8087728D6
:103D80000C05801B0C25E08C4802E088854DF184F1
:103D90008055803BAB1D883BE1384C350C1980D5F4
:103DA000420AE1D092B5E090E0340C15F188460269
:103DB00086E5861DA6038301060482038603E1FCD3
:103DC0000C358307A023E084E0884C25E01C0C051B
:103DD00082318413E0844C354C15C2378603E08C65
:103DE000E030402340138F214C25E060E915E09836
:103DF000E1380C15E0380C35E0A40C45F18844128C
:103E0000892D86438C1B8A65E8086D48E0840C1573
:103E1000E01C0C250C3582114C15E088C217E0849B
:103E2000E08C4C05443382238F11E030E060440382
:103E3000E0984C1588F18C0BF21C0C0CE00812A8D1
:103E40004C1585114C15E0980000E09CFD11EC101C
:103E5000E0BC4C05E0944C150C05E1C58721E0A0C1
:103E6000E0440C35E0984C25E68A400AE09C4C255D
:103E7000E0480C25F18C4612EC180000803DFF4113
:103E8000E0944C454C35A4134C15E0BC2F18E0C011
:103E90004C059FFCDDD5E0BCE0780C058815A10D34
:103EA000E0780C35E0200C05F18C4622E0880824EF
:103EB000814188C3F374845BF80C1885C487C47788
:103EC000FC1C0075FC200085F19C4E828045887D9D
:103ED000865D8A2BEC040A50FA1048720C05FAB57C
:103EE0009834E0840C4582010C55E03C4C05E01C04
:103EF0000630E084870DEC044622C2078053F1901F
:103F0000E0304A33E0604A239FFC2B184C058501C2
:103F10004C05E0980010E09CF3A5EC04E100000CD7
:103F2000FA1C040CEC101EF00C15806BA11DE09027
:103F3000E0180C050C7587214C25E084AC95E098C1
:103F4000E08C0C25AC05851DE0880414F088460241
:103F5000FC080025F8100645E0200C55F80806C5B9
:103F6000F8180635C447C427FC080A25FC100A4582
:103F7000C437C4C7FC300AC5FC0C0A35A6C3A82345
:103F8000900584CDE0340C2506248421FD37E17CA6
:103F9000852786230414A4134C15E0884202E09080
:103FA0008634F088FC080025C4379A140235C427EB
:103FB0000225FC0CA433FC080C5589210850E09024
:103FC000C457EC04E0881844FC140055FC3000C5CC
:103FD000C4C7C457FC140255FC3002C5A35DB853D6
:103FE000183082B510C4E408FD87E17C85C790C312
:103FF0008095995DE0904C4504208A3BA12BEC0410
:104000000C05F6B58321E0907D788C1B0C45E80407
:104010000C15E1380C35E0340CC5E0944442E088DE
:10402000FF51F18440228B3B40C2FB004C05FA005B
:10403000B085E090E0840C3518E88A3D0C258000BE
:104040001034E01C8483E084E0301053E0A40CC5FD
:10405000F1B052520F38930D82318000E084083461
:10406000E0844C35440388238203E030E06044035D
:10407000E0500C85000491114C15FB008C1BE050A6
:10408000E80859880C2598140C35E0840210E01CCF
:10409000832DEC048433C227E0604603E0504C8556
:1040A000C00012580C05AB95FF11E09486D5830B28
:1040B000E1380C05E0340C15A2039824E0904C057F
:1040C000E4040270E01C0C35EC0404200C25851D72
:1040D0004C15E08CC217E084E0944C054603823313
:1040E0004623E0301388E0600C1580000C05E09456
:1040F0000C25E0884612E0A4843DF180E0904C1548
:104100000C2586858531E034E0984C3502108023FB
:104110000420EC044C35EC0C841DE09CE0BC4C15F8
:104120004C25FF114C15E0C08A85E094E0980C0501
:104130000DF8A70BA3358000E0840C1510C8A11D55
:104140000C25C0000614E01C0C45E0848433E040DC
:10415000E0300633484A8751A033E09680E5883D39
:10416000040982238201E1E0E1E04401E0840C05DE
:10417000E01C0C15E0880C258013C207E0304223B8
:104180000C159DB50C25E0840C35E03C0810E01CB6
:104190000244E4048233E084F0804222E0304603AB
:1041A000E0604613E1D00C09E084400AE08C4C1535
:1041B000E0844C45C0000C480C1599F50C35E0A482
:1041C0004222E084830DF184E4040230E0844C1543
:1041D000983492C5E01C0C45E08C0C55EC0406307C
:1041E000C217871D482382434853E030AC85E06006
:1041F000E1D00C19E03C0C25E084420A8085840360
:104200004D788C1B0C15E8089824E084E01C0C35D4
:104210000C4582110A14E0900420E0848A33EC04F7
:104220004C15851D4643E0844603E0308701E0607D
:104230008F018055E0984C0593159695E0601083AA
:10424000FB10488282C3A0438E05984D823198446A
:10425000E0844C35EC040840C237893D8013862346
:10426000E0304403E06044138F659035E01C0C356A
:10427000E08C0C258233C217E0304603E060462311
:10428000E1D00C09E084400A002482C58C1BFB00AD
:10429000E8084908E0840C15E01C0C258223C217AD
:1042A000E06044030C1598040000E084811DEC04D8
:1042B0004C058701CE75E0980C1589F58741E040E3
:1042C000E092421A825DA053862380E5E1E0040972
:1042D000440182010C05E1E00C15E0840C25E01C92
:1042E000C207E090422380138701E030E0984C053C
:1042F000E0880C05E0A40C25E0900C15841D8023BB
:104300000C258C458023E03496C5851DE0840C1572
:10431000E01C0C25E03C0C35E4040810E084024469
:10432000423282234403F0804413E0300C09E06001
:10433000400AE1D04C45E08482C5E084FB000014D3
:1043400043788C1B0C15E8080C25E084C217E01C90
:10435000440382238F01E060E0984C050C0C88F147
:10436000DD93F21CE0840C158815A11DE01C0C25C2
:10437000E0840614E0400C45063384338751E03076
:10438000E096484A883DA033822380E5E1E00409B5
:10439000440182010C05E1E00C15E0840C25E01CD1
:1043A000C207E088422380130C05E0308271E0846C
:1043B0008F018F0BE0984C058C0BF4550C0C88F199
:1043C0002678F21C0C05E0040C25E0F88731E0FCAF
:1043D000E0984C35E0944C15F18040124C05A41344
:1043E0004C15E0BCF7B5E0C0F80C040CEC101EF066
:1043F0008444821400258654C4C4E0A00035C61449
:104400008853E020AB2D9853001582538C5EE01842
:10441000082084F50A30EC1081C1E4100A7582642A
:104420005062F8040C65F0B01085FC300840E010D4
:10443000AC73EC049073A14B88C1D57EC427FC15E6
:1044400006308433A141EC4002C582544C52FC0832
:10445000CD74F0889864A8630A55C4C70840FC303E
:10446000AC73EC108A73A94B88118C7E88F1FAD555
:10447000F00C0C0CC1C3DD93F87C040CED801EF035
:10448000E0BC0065E0C00015A71EFF914095826D5D
:104490008111E088E07C4015E13C4095C0001E7829
:1044A000991E8111E0B40015E0180025E0A800C5B0
:1044B000E0D400350035A33E973EE0D8E0DC00357F
:1044C0000035893E0045E06C8D4EE028E68648CAFE
:1044D000E02C00554A86955EA653E03CA0419D5EC7
:1044E00014448C7B0610E1948337E4040610933E59
:1044F0008537E4080674FE3E8623E088E440061013
:10450000FC3E8B37871788110C20BE1E0015EC402F
:10451000A11EE024E08402C48FCE8B1EBCCE8EC3CD
:104520008151813181C181418E8B81B19BAE9F7E52
:10453000190A910E18E8E71CA24DC00042A290ABE8
:10454000A91EF0B09055AD9EE0100C25E0AC0075B2
:104550000E75C4279BA4FC08F1A8427288B3861D7F
:10456000A5BE8E050075829B0E25E0B00E24FC08CA
:104570008F14E0848BB48273E02E4E7A4E7AA1B40D
:104580000E70E6AECF77E500E6864E7A8E23942352
:10459000442A927B8D14F00AE686442AE600042021
:1045A000847DD127A14B86054015A91481B1E088EF
:1045B000825590ABE13C40159823BC244222A714BD
:1045C000A71EFB04AD948341867B81A581F5881BE2
:1045D0008145867BA5B4867B90ABAD9482BD9D144E
:1045E000C00013988311A34DC0000DA8AB7EAF1E71
:1045F000E0100C35E0200025E0200C45E0880E346A
:10460000FC1C04350445C4470085FC10A314E010CD
:10461000883383CDFC1C107597148E059AC583CD05
:1046200083CD8914DA84B005C4878214FC20021576
:104630004422FC240224FA044832E08CC247F1846C
:104640000DC88A4DA5BE8000B301C014E682463A6B
:10465000E41012701430C797A1B4E408E6AE529A81
:10466000FC2002358EA3C5A7AD019091E682422AB7
:1046700092A3C997E0980E34947382A304068F81A5
:1046800083A1E0048D458391F8300C85F8200C451A
:10469000F8100C9598A4C487FC2004150445C44761
:1046A000C497FC10FC2404950425C4A78243FC286D
:1046B00084439243441293140834FA10A443E084D0
:1046C00098258A4DC214A5BEE4101270A1B4C797F4
:1046D000E6AE529AFC20021586738491C477C59782
:1046E00082938E934E9290110614F0889181E190FE
:1046F000E008040689A187910C9585B59814F810F7
:10470000C417C497FC240445FC040415FE24881334
:10471000FA044422F18848328A4DC247A5BE9A6500
:10472000FC241015E4101070C7878673A1B482733F
:10473000E6AE468AC4778473C537843186738811A0
:10474000E18C06140406918185A1E008423A859126
:104750009413E6AE8273F31FF00A427A421A95343C
:104760008413E68E824DF11FAF0484659104A30B80
:104770004055A9549914E088991E8211AD54906552
:1047800081A59FA4AD548A4BAB749FA48A4B8B2503
:104790009FA4AD54A5B4910489B5AB748A4BAF4EB8
:1047A0008975925BC4879884FC2004154422BE243A
:1047B0000224FA044832E084C247F18486C58A4D57
:1047C0000015A5BE1270E014C797E410529AA1B468
:1047D0000215E6AE9091FC20C997867382239273EE
:1047E0008411C427061484738F81E188E0040406D1
:1047F0008A4BF125AB74AD548A4B83C5AB74925B85
:10480000002583850015E0EC9FA4E0A0F0B046A24F
:1048100087318623E68E421AE4100620A5B4833D34
:104820008045AB748311A72EE07C4015AF1E851127
:10483000948B82C1F0B042A2EC040210851DA72423
:104840008A1B88618E3B829BAF44885BDFFC2738E4
:10485000921B81259924A11D8215823BE0EC001555
:10486000832D8221403580658111E088E0984015D4
:10487000E5801EF0F07C0C0C000CDD93C0006101A3
:10488000F87C040CED801EF0140580AB1415E0BC20
:10489000FF21E0C0830DA91EE08C54255415811121
:1048A0005425E0801D78E140FF11C00081118B1E6E
:1048B00014159D1E1445E0B41485E0A81425E018D5
:1048C000A72EE0E0E0E4142514259B2E1435E06CBF
:1048D0008F3EE0E8E686464AE02814554A86935E15
:1048E000A453E03CA0319F5EE1941634E40404102C
:1048F000992E8327E40804108D2E8527F190440219
:104900000604C4274E82E0888683F088E4400410C1
:104910008B2788118717892E1415FE1E971EE02CF1
:10492000E02414150244A11E911EE084A81B954E9C
:104930008121FC1E81118151813181C1A5AEAF3E23
:10494000190AA3BE17C8E71CA21DC0009C349035ED
:10495000E0AC14650C65C4375262FC0C849DF1AC6C
:104960008243AF448CE5AF4E1465AD5E0C35E0B0CC
:104970000C34FC0C9544E084965B88634C6A91B4DB
:10498000A1B4E02EE6AE4C6A0C608ABBCF67E500AE
:10499000E6924C6A8C339633463A926B9344F00A13
:1049A000E692463AE6000630866DD137A11B84C5F3
:1049B000E08C5405AF2E8121FC14843554058013FE
:1049C000A924E140FA0844128311A92E846B817551
:1049D00081E5829B8135846BAD54846BAF349F2419
:1049E00012E8843DA31DC0000D888391AD6EC00008
:1049F000F8101025E0201415F820103502B5C42752
:104A00000434FC080265E0881435FC08A744E01073
:104A10008CB389CDFC0806259B448E659C6589CDA9
:104A2000A0648F34AEA587CDC467AA14FC18021504
:104A3000463289340234FA0442B2E08CC217F1845F
:104A40000D888A1DAB9E8000BE3EE84452BAB33149
:104A50001420E68EC7A7E410A1348491E68E54AAF0
:104A6000FC1808B5C597864B90A18493BE34AD2140
:104A7000E68A443A9493C9A7E09806B44492849392
:104A80008F61F08CE0041206833183A1AB9E8D759B
:104A90001065A0341095E010C437E020E03010A578
:104AA000FC0C02450265C467C497FC18FC240295FF
:104AB0000215C4A78863FC28826392634C12991480
:104AC00002B4FA18AC13E08498458A1DD244A54478
:104AD000E4101220A1A4C797E6AA529AFC0C08354C
:104AE0008491944BC59796238493C42790318693E1
:104AF000F0984492E1901634120691618731E008F3
:104B000085C589A1A094AB9EE0101045C447C49709
:104B1000FC240265FC1002158D448C13FA044C42EF
:104B2000F19842B28A1DC217063598650820FC2408
:104B30009623E4108623C747484AA1948C23E6A60F
:104B40008441C4278831C547924B8823E18C1634B1
:104B50001206916185A1E00848BA85319443E69236
:104B60008823E74FF00A442A442A97349223E68E9A
:104B7000841DED2FAB9482A5A5A4A39BE08C5405C6
:104B800082219D248E459D2EAD64A3B48A1B89B5D8
:104B9000A3B4A5A4AB94AD64829B895589258A1BD7
:104BA0000215C467FE34FC18FA044632E08402346D
:104BB000F18442B28A1DC217AB9E86A5E01414454B
:104BC000E4101220A1A4C797E6AA529AFC1808453F
:104BD000962390919223C997C437883386238441C2
:104BE000E18816448F61944BE00412068A1BF1950C
:104BF0008A1BFB15A3B4AD64142583554602E0F06F
:104C0000BE3DF188A3B4A9248045AD649544862BAC
:104C10008045893D8331A924E0805435A92E8591B2
:104C2000A9248B0E82C1840DEC040000EC100E70E0
:104C3000EC101080825B8C2B2848921B8B24DFFCAD
:104C40009D14A12D140582158211E0F08065811D4F
:104C5000E08C5425540581011EF0E0980C0CE58091
:104C6000DD93F07CE100000CF87C040CEC801EF07D
:104C7000E0BC0025E0C00015832D8F1E4015FF11FC
:104C80001778E0900015C0000035E018893EE0304C
:104C9000E02400350624FE3E0045E0888B4EE064AB
:104CA000181086138111EC408111FC1E81B1BE1ECB
:104CB000E71C170AC00015E8E0101835E020007561
:104CC000A11B8B140E85C43796A5FC0C9665F0BD10
:104CD000B0148D2EE0201845E0B40025C447C41759
:104CE000FC040E55FC100E95E41008204A4287473C
:104CF0009093FA14E0840854E0100085F1905492E7
:104D00001085A3AD0D68FC0C0035C0000615E0143D
:104D10000680FC04C737E410463AFE64BC8EE69A6F
:104D2000F0A44882E4081010C5879031508AC93732
:104D30008643E69A88818253C787C45790438A4343
:104D4000F00A424A421A89340210E68EC2A7E500F0
:104D500082ADCF17FC14AAC580A582AD40158D1475
:104D6000FCAEE090A11BBE14A895BC84E0F4001535
:104D700042328D348F34F184FA0C461283118F3E07
:104D80009385BE1E00A5B044C447E0B4FC100E15C8
:104D9000E4100AA0425287571284FA040C14E084EB
:104DA0000055E0848D9EE014F1984C920A95A36D15
:104DB0008E55FC0CFC100A35F0A04892BC9E864330
:104DC000E4080A90C5578431FE94C537E6A64A5ACE
:104DD000E6A6463A88518243C7578831C447C73749
:104DE00088338A33F00A423A421A89340210E68E36
:104DF000C267E500826DCF17FC1484C58085826D83
:104E0000E0904025BE14FC6EBC94A11B001582B539
:104E10004222E0F48F34F184FA0C461283118F3E63
:104E20008125BE1EF214BC94B04482340635C417EA
:104E3000A0A1FC048BA7C447FC100E45FA0C46A2A7
:104E4000E0880A34A285895DE08C0834A8638D640B
:104E5000A0D5A36D0A90C0440815E408C557FC040A
:104E6000488A9B41FE74E692E69E4A5A463AB981C8
:104E7000C497E6A288518893481AC757CC17E69E74
:104E800086938A93829382418893C347F00A429A19
:104E9000421A89340210E68EC267E500826DCF1790
:104EA000FC1496E592A5826DE09040258995FC6EF4
:104EB000F254BC84B03482140215C4570C20FC1484
:104EC000C437E4400E358B674262FC0C0814FA04C8
:104ED000874DE088061490854692E08CA33DF18CC6
:104EE000C0448ED54C9AB3210845E68A0A80FC144A
:104EF0008461E410C567C7574A5AFE249063E68A66
:104F0000421AAD719051E69E4E4AC957CC47E68A87
:104F100082638A63886382718E63C377F00A426A10
:104F2000421A89440210E692C237E500823DCF174B
:104F3000FC1484C58D24823D40258085FC3EE09094
:104F4000A11BBE14001582B54222E0F48F34F18417
:104F5000FA0C461283118F3E8125BE1E8F148D24BC
:104F60000420822D82B1EC04EC1018C0DFFC2A284A
:104F700040158111C0F1E098F07C0C0CC1C3DD93A9
:104F8000E0A000158455A31DE0AC002581418834C4
:104F9000C9C48151805586CD8241885B4632891BC8
:104FA000FE15FB30E0B840558151DD93E0B8405527
:104FB000000CDD93C0006101F87C040CEC201EF0B5
:104FC0000225A32B803BE0188E95805BE04C0245C8
:104FD0008033C83B94D5A13D803BA34D8C55805B6D
:104FE000E0880E04FC1C0435C43786C4FC0C18355C
:104FF0008473BE3E805B81819C94803BF8040EA547
:10500000C4A7C497FC241895FC2818A5125093AD8A
:1050100082C5EC048DADBE64026582651664E0B4A1
:10502000F7B7E17C8B67966392AB8CADA18B8095D3
:10503000821586AB898D8281EC100E70943B925B59
:105040000804F6B50445E088C457FC10042586C45E
:105050000255FC140215E020C447E0C8FC10186596
:105060001825C4270A45FC084A6AFC10422AE6862D
:105070008441E6868A238547892D8243803B80458B
:1050800090F1860BF07C0C0C000CDD93C0006101EC
:10509000F87C040CEC801EF0E08400150DF8A11DD6
:1050A0000055C0000414E01C8A23E084E03004931F
:1050B0000D58A19D0035C0000473E0A08741E06059
:1050C000E692563A0CB88EBDA17D800092BDB21515
:1050D000FE5EB0C5E0D00085E0B4004586918F9EAD
:1050E000E1A006840A848E9D8D5EFA801434893E88
:1050F0000035FA808B3EE01884958131E02000C5B0
:1051000084618F648B34C49781318693C457E5548E
:10511000FC1418558451826185578F6DFA0C4652E4
:105120008F64FCD58CC38DC44EC2A01D8E9BF0A88D
:10513000042380E50420E02C5222EC10A3CDFB1CBC
:1051400092CDA2D504A0A295FA2DEC04977DA215CC
:10515000A041A0C5E17C04448443F727E1140A443C
:105160009EA5875D040A89249E25F0004452FC1EFA
:10517000C427F18CE18408A4482AA8238DA4E0AABE
:1051800004A08CA3E187E404C427BE8E1834A86B66
:105190008B84E088B863848381C181B1551A82A170
:1051A0008A2BE02420010088A024C000C427821498
:1051B000FC0802258C23C427E0000222E800042218
:1051C000E01C549AA4B382C3A86388813FFD3E8843
:1051D0008F14C3FF84C19085E18804C408B484B1EE
:1051E0008DC4E108C06482C3E4040AC0E0240085E1
:1051F0008B94C45781518A93C417E514FC040C1591
:10520000E686548A14A082C18FCDE500CFA78A1309
:10521000F0A84A128914FC55F420028A86F5FE642F
:10522000F19058228665A0CD000984438A43E33477
:10523000F00A424AE68E400A421ABE248401E68AF7
:10524000021085079803E600820D911780E5FC04A3
:1052500000198C038211E1E0E1E040110C0CC0F177
:10526000DD93F07CE100000CFC7C040CEC501EF0A3
:10527000E0A800A5E0AC0075E0B0002500B5A3AD46
:105280008141E0A0884E9C4E941B84759C548234CE
:10529000FC1006359C3E8A338854C034FC10063519
:1052A000EC0402108A33A11B8841883E48B2FC15E9
:1052B000A34DF1A81870825489AEE41052B28A1539
:1052C0000694F1A88E6BE088FC3E961BFE0C0CB594
:1052D0008211FE1EBE1EB413E08802A4868B8A3B98
:1052E0000635E1A41290FC04B4B3EC04E000121AF9
:1052F000F1BE86B33F58903BC3FF3FFDC4C7BEC459
:105300008253FC1489A48EC38125FEB402B08E6B37
:10531000489AEC040128E0048274A000EC0410A078
:10532000D534D9141080DD94A613EC04E000102AC3
:10533000F11E92135FFD3F68C054C3FFE4101820B4
:105340000E448835846BE088FE1C0C85E40406B0AE
:1053500002A4B4338ABBE088E5A4969BFC0416B58E
:10536000EC040840A14BB483F18E9683FCD592BB2C
:105370008E53C437F08C5822007889A4C0002001D5
:10538000846B8315A00000F802A0C004D924EC04AB
:10539000C144D534EC040210A11BA623F12E8823AE
:1053A000A8F1FCF5F47C0C0C000CDD93C00061014D
:1053B000F81C040CE0A00235E0500225463A874173
:1053C0004822E6920630F080874DEC04A32D8AC572
:1053D00002358A950804E0180655E0888644FC10DA
:1053E0000855C45781C1FC14E4040C00E0880E0485
:1053F000E0881064FC1C0675FC200685C487C47711
:10540000FC1C0895FC2008758205937D80C58B7D6A
:10541000E0B40285907DCA77A1CB809580B5806B82
:1054200085CD82C1F8358C0BF01C0C0CC1C3DD930B
:10543000E0A000258435A32DE0180015E08806249F
:10544000F08C441281418433C94EC54E0055CD4E77
:105450008241E0A0FE358B4D000CDD93C000610160
:10546000F87C040CECA01EF08131AD0D0455AAF5BA
:105470000445E10004A5E104935EE108F1945612AD
:105480004A12914E0495F1904012E10C0485F1A866
:105490000445E1105852E1144E12F9AC4CC2F1A48B
:1054A0005812F9808D7EF1A08F1EAC7FF1904812CA
:1054B000B87F8BCEA17DA87FFC4EA235BE9E89AE63
:1054C0000495FE8E02B4E018C457E088FC0412155F
:1054D000FC141275E0200455E1180485C477C41744
:1054E000FC040A45FC1C0A15E11C0475E0B404A583
:1054F000E6A2504AF1904812E69E4E4A907DB4834F
:105500000C0498A51235E088C437FC18FC0C0A3549
:10551000E1200445F1844232E692421A924B8E1DFC
:105520008C259304C4B78DB4FC2C08050A65C40708
:105530000405FC004662E124463AF18C823DE68295
:1055400088259104C4A78BA4FC2808050A95C407E4
:105550000405FC004292E128421AF198861DE68279
:1055600084258904C407FC04FC0008050A05C40757
:105570000435FC00B203E12CE68E400AFE04820DE5
:10558000BE0480558835A90DE0740415E094420AE4
:105590008FC48685AFCDA0C3C4C78615181588C330
:1055A0001825F818F034F8080A15C417C427FC04A5
:1055B0000A25C4370A35FC08A413FC0C841DA62355
:1055C000000080D58135EC10860B803B0C0CD0F1AF
:1055D000DD93F07CE100000CFA7C040CECB01EF0D2
:1055E0008B3E889B891E8D2E8008FE0E049099119B
:1055F0000690E7000890E6408151E4C0F830485535
:105600004855D15E0210E02CCD5CEC044653A11B42
:10561000C956E02CE02C44518D14FC55A11B861872
:105620000204A065FC1EE088BE0EC2071706813189
:105630004E06E008959EE004933E89A450628B6478
:105640001005F09CA81AF8607438992143FEE80808
:10565000CFFF7FFDFB84400252058E931005F8605A
:10566000A81AF830735899215205E8088F7EF8304F
:10567000FC1C0C059921A81AE80872C8FC2C0C3BEC
:1056800045FEAA1ACFFF7FFDFB8840029663A40E59
:10569000860B9921E80871E8959491BEA40C969325
:1056A000E0600C039921AA1AE80873480C03808B68
:1056B000AA1AE03072D8992180BBE808E0900C0368
:1056C0009921AA1AE80872684222BE24B023F1ACDC
:1056D0008E38FE3496238013402AFC44441AE0920C
:1056E000A13BE092E0000202E00006228045960B1A
:1056F000A1BD8101EBFC0412EBFC0232960B80553C
:10570000E030520393349594F08C4092E3004021B2
:10571000E330401182088D04C13D823184B191B4DF
:1057200088718F748101E2750C0CD8F1DD93F27CE5
:10573000E0840044F0805852E09018C3FC000A0353
:10574000FF01A0C3807581CD812582C1A31DD8CB67
:105750008615BC04E68A44CAE50E582AE58E442A1A
:1057600018C08131C1006401F28C4422E3C7DE27F6
:1057700082CDA4CF80F593110A298853E22DE1E070
:105780008B11805540118803DD93E390E100000CFC
:105790001824C25A9833E0880635C6575812E030AC
:1057A000AAC3FA9480F5D93DE010000B8203C60726
:1057B00080A5C03D85018443E3904801C1C3DD93CA
:1057C000FA7C040CECF01EF0954E995E8F2E913E03
:1057D000802B8D1EAF14B704409181914091E3BCA2
:1057E0004091E3B84091E3B44091E3B04091E3AC21
:1057F0004091E3A84091E3A44091E3A04091E39C51
:105800004091E3989D0EE394E390409186089B1E9F
:105810009885A10BB304B5748B1EB114891EAD1409
:1058200014109D140C10E640937EE5801000E0718A
:10583000972EE580000A9C04C7FF63FD9DB490C5C8
:105840008D0192B3E3905601A10B880AA01480E564
:105850008085C11D560191018A0AE3908205A10B42
:10586000CE0798148085C01D56018701C80AE390B1
:1058700080E5A10BC01DA81A87018085E390560121
:105880009514840B9334922B78389D449724EFFC25
:1058900000099904000AE03484E5E3FCE39016096A
:1058A000EC140000F404010A9D0484158B04FC0E22
:1058B0008904BE0E840BBC0E8F248D14924B913440
:1058C000413899549724E80082089B04C19D829135
:1058D000886184A1888188718101EAD50C0CF8F176
:1058E000DD93F27CE100000CFA7C040CEC701EF0FD
:1058F00082BB8ACB10A3808BA3ADE0149F54A194EC
:1059000018099015A10BE030F09040928045951158
:10591000401189111809E390A10BE0309D048E0518
:10592000E0840244021092138D1EE6A0E5E00C0014
:105930008BBE8171FE8E895EBEAEFC9E80028D04A0
:10594000A2039812F08000048495940DE0201013B7
:10595000960BBC9E86AB849B98BB888BEFFC6EA895
:10596000895496CB922B8BB4943BFC94904BBEA461
:105970001809FE848271E0308461C17D8175F8155B
:10598000E0201013960BBC9EEFFC6D480C0CB8F198
:10599000DD93F27CE100000CFA7C040CEC701EF04C
:1059A00080BB829BE0940034E18402B4A5C48203EE
:1059B000E02E400AFBB042028161A17140C2A27395
:1059C0004262FA808073F3984012A9840204F2982C
:1059D000CB77E0ECF9845472E1940E04FA90402203
:1059E000F99C42A2FB88444243F6A11BA403EFFCAE
:1059F0004262A01C8E65F3988DAE895E48BA9F24E2
:105A00008623E6AE0644CA278623E184E012442AB0
:105A1000446284C3A0C1F298F2985622E0EC14B418
:105A2000B4CFCBC7E19404B47FFD57FE58CAC03F42
:105A3000041AE42C420AE0008085E1807FFD59FED3
:105A4000FCCEC03F81218045802BBE2E5418823B66
:105A50000404EFD4D017E1E0971BA41FFF21D00767
:105A600080E58DA4E42C42CA817580F59BB5FF01C9
:105A7000E008404AFF01804543FE8085C03F7FFD2E
:105A80008E3B942BEFD449888E3B942BEFD449481E
:105A9000823B802B7FFD57FE060AC03F8085E1FCDC
:105AA000E5FC06CAFF018145E000444A8B9EFE7E6C
:105AB000804590ABA394FF219D84A17447F6806537
:105AC000FC04E0045058BE148924EFD4446284835B
:105AD0008E83F298F29844224422909352CAF2980C
